:100000000C9434000C9451000C9451000C94510049
:100010000C9487000C9451000C9451000C945100E6
:100020000C9451000C9451000C9451000C943F011D
:100030000C9451000C9451000C9451000C945100FC
:100040000C9451000C9451000C9451000C945100EC
:100050000C9451000C9451000C9451000C945100DC
:100060000C9451000C94510011241FBECFEFD8E026
:10007000DEBFCDBF11E0A0E0B1E0E4E4FCE002C0EF
:1000800005900D92AE32B107D9F721E0AEE2B1E0B2
:1000900001C01D92A933B207E1F70E94ED010C9453
:1000A00020060C940000AC01440F551F70E060E086
:1000B00040933301509334016093350170933601BE
:1000C0009C0150E040E060E072E18AE790E00E942D
:1000D000E602215031093093890020938800109264
:1000E000850010928400E1E8F0E0808181608083E7
:1000F000089505966AE070E00E94D202615071098D
:1001000008F4089585E38A95F1F70000F7CF1F9270
:100110000F920FB60F9211242F933F938F939F93BB
:1001200086B190E09C013595279521702093380188
:1001300025E0959587952A95E1F7817080933101A7
:1001400080913201811138C080913101811128C024
:1001500080913801882321F181E0809337018093D9
:10016000300180912E0190912F01019690932F01E3
:1001700080932E019091370180913201981739F0C8
:1001800081E08093300180913701809332019F910B
:100190008F913F912F910F900FBE0F901F90189548
:1001A00080913101882331F3809138018111E2CFB0
:1001B00082E0809337011AC0809132018130F9F4D6
:1001C00090913101992341F090913801992321F0C8
:1001D00093E090933701C3CF809131018111CACF51
:1001E000809138018111C6CF1092370181E0809350
:1001F000300180912E0190912F010197B7CF80910E
:1002000032018230C1F480913101811108C08091A6
:100210003801811104C01092370181E0A0CF809194
:100220003101882309F4A6CF80913801882309F48D
:10023000A1CF83E0BECF80913101882341F080912E
:100240003801811104C082E080933701E6CF8091AC
:10025000310181118FCF80913801882309F48ACF31
:1002600081E080933701C3CFE1E8F0E080818860CE
:100270008083EFE6F0E080818260808308951F92A2
:100280000F920FB60F9211248F939F93AF93BF934A
:100290008091330190913401A0913501B0913601E4
:1002A000892B8A2B8B2B71F480918100887F80931E
:1002B0008100BF91AF919F918F910F900FBE0F90D2
:1002C0001F90189585B190E1892785B980913301F8
:1002D00090913401A0913501B09136010197A109A7
:1002E000B1098093330190933401A0933501B09309
:1002F0003601DFCF9BB19F709BB99BB1807F892B6B
:100300008BB9299A299A29980895CF93C82F2898AC
:100310000E947A018C2F8295807F0E947A018FE360
:100320009FE10197F1F700C00000CF91089581117E
:1003300004C080E8860F0C94850180ECFBCF8AB165
:10034000806F8AB984B1836084B98FE59AEE019792
:10035000F1F700C0000080E30E947A018FE19EE483
:100360000197F1F700C0000080E30E947A018FED51
:1003700091E00197F1F700C0000080E30E947A014C
:1003800080E20E947A018FE39FE10197F1F700C0BC
:10039000000088E20E9485018FE00C948501CF93D4
:1003A000C82F289A0E947A018C2F8295807F0E9404
:1003B0007A018FE39FE10197F1F700C00000CF9130
:1003C0000895CF93DF93EC018991811103C0DF91F0
:1003D000CF9108950E94CF01F7CFCF93DF93CDB790
:1003E000DEB76C970FB6F894DEBF0FBECDBF87B1F6
:1003F0008D7D87B988B1826288B9249A0E949F0155
:1004000060E080E00E9497011F9286E08F931F9228
:100410008DE68F9380E191E09F938F931F928CE004
:100420008F938E010F5E1F4F1F930F930E943B030C
:10043000C8010E94E10160E081E00E9497018CE127
:1004400091E00E94E1012FEF37EA81E62150304030
:100450008040E1F700C0000081E00E94850186B184
:10046000869581708093380186B185FB882780F955
:1004700080933101809131010FB6F894DEBF0FBE39
:10048000CDBF811177C080913801811173C0109266
:100490003201809132018093370180912E01909139
:1004A0002F019F938F9389E291E09F938F931F92E7
:1004B00080E18F938E010F5F1F4F1F930F930E9458
:1004C0003B03C8010E94E101809168008260809333
:1004D000680080916C00826280936C0078940E9426
:1004E00034010FB6F894DEBF0FBECDBF99E2E92EFE
:1004F00091E0F92E20E1D22E809130018823E1F3A2
:100500001092300160E080E00E94970180912E01FE
:1005100090912F019F938F93FF92EF921F92DF9202
:100520001F930F930E943B03C8010E94E101809139
:100530002E0190912F01877099270FB6F894DEBF96
:100540000FBECDBF892BC1F6E0912E01F0912F0196
:10055000F7FF03C0F195E195F109F695E795F6955A
:10056000E795EE70FF27E050FF4F808191810E9458
:100570005300C2CF80913101811108C080913801B0
:10058000882321F081E08093320183CF8091310173
:10059000882331F080913801811102C082E0F3CFCD
:1005A00083E0F1CF97FB072E16F4009407D077FD78
:1005B00009D00E94050307FC05D03EF49095819573
:1005C0009F4F0895709561957F4F0895052E97FB75
:1005D0001EF400940E94FD0257FD07D00E941903EB
:1005E00007FC03D04EF40C94FD02509540953095D5
:1005F00021953F4F4F4F5F4F08959095809570958F
:1006000061957F4F8F4F9F4F0895AA1BBB1B51E1F0
:1006100007C0AA1FBB1FA617B70710F0A61BB70B72
:10062000881F991F5A95A9F780959095BC01CD0117
:100630000895A1E21A2EAA1BBB1BFD010DC0AA1F23
:10064000BB1FEE1FFF1FA217B307E407F50720F03B
:10065000A21BB30BE40BF50B661F771F881F991FB6
:100660001A9469F760957095809590959B01AC01FF
:10067000BD01CF010895AEE0B0E0E1E4F3E00C94F9
:10068000F7050D891E898F89988D26E02C831A83A2
:10069000098397FF02C080E090E801979E838D83D5
:1006A000AE01455E5F4F698D7A8DCE0101960E9445
:1006B0006B034D815E8157FD0AC02F81388542173B
:1006C00053070CF49A01020F131FF80110822E96A3
:1006D000E4E00C941306ABE0B0E0E1E7F3E00C9447
:1006E000E9057C013B018A01FC01178216828381A6
:1006F00081FFC8C1CE0101965C01F7019381F3012E
:1007000093FD859193FF81913F01882309F453C1A3
:10071000853239F493FD859193FF81913F018532B4
:1007200029F4B70190E00E945B05E7CF912C212CC2
:10073000312CFFE1F31538F08B3211F190F4803257
:1007400009F1833229F137FC3CC020ED280F2A3013
:1007500050F536FE20C08AE0989E200D1124922E7E
:1007600006C08D3291F0803371F7689430F8F30150
:1007700093FD859193FF81913F018111DACF21C0D3
:10078000689431F8689432F8F2CF689433F8EFCF78
:10079000689434F8ECCFEAE02E9E200D1124222E2E
:1007A000689435F8E4CF8E3229F436FC04C168949D
:1007B00036F8DDCF8C3619F4689437F8D8CF883600
:1007C000B1F2982F9F7D95549330E0F08336A1F1DC
:1007D0008337C1F1833509F063C02801F2E04F0E81
:1007E000511CF801C080D180692D70E036FC02C038
:1007F0006FEF7FEFC6010E9445054C01689437F802
:1008000082010AC00C5F1F4FFFE3F98388248394A1
:10081000912C6501E89437F833FE2DC0522C8114D9
:10082000910471F5552009F468CFB70180E290E09A
:100830000E945B055A94F6CFF801808189830E5F90
:100840001F4FE4CF2801F2E04F0E511CF801C08089
:10085000D180692D70E036FC02C06FEF7FEFC601DA
:100860000E9450054C018201D5CFB70180E290E093
:100870000E945B052A942814190409F0B0F7CECF22
:10088000F60137FC859137FE81916F01B70190E049
:100890000E945B0551105A94F1E08F1A9108BFCF66
:1008A000843619F0893609F077C0F80137FE6BC03D
:1008B00060817181828193810C5F1F4FF32DFF76E0
:1008C0003F2E97FF09C090958095709561957F4F59
:1008D0008F4F9F4F689437F82AE030E0A5010E94BF
:1008E0008B05C82ECA188C2C432C36FE0CC0E894FD
:1008F00040F8C91440F434FE05C032FC03C0F32DA7
:10090000FE7E4F2E892C44FE95C0FE01EC0DF11D9C
:100910008081803309F087C0242D297E422E842DCA
:100920008870582E43FC95C040FE8FC09C2C8214CA
:1009300018F42C0C922C981844FE91C0B70180E357
:1009400090E00E945B0542FE09C088E790E041FE0E
:1009500002C088E590E0B7010E945B05C91408F465
:100960008AC0CA94D12C9FEFC91AD90ACA0CDB1CC1
:10097000F60182916F01B70190E00E945B05AC1413
:10098000BD04B1F74FCF60817181072E000C880B39
:10099000990B0E5F1F4F92CFD32CE894D4F82AE026
:1009A00030E0853739F1232D297FD22E8F3601F1A2
:1009B00048F48835A9F0F701868197812B96E2E10A
:1009C0000C940506803749F08837A9F7D4FE02C099
:1009D0006894D2F820E130E00DC06894D4F8F6CFE6
:1009E00034FE03C0822F8660D82E20E132E002C0A0
:1009F00028E030E0F801D7FE0FC06081718182816C
:100A000093810C5F1F4FA5010E948B05C82ECA1849
:100A10003D2CE89437F867CF6081718190E080E0E9
:100A20000E5F1F4FF0CF42FC02C0839478CF8394B7
:100A3000839475CF842D867809F471CFF6CFB701F2
:100A400080E290E00E945B0583948214C0F3512CF5
:100A500073CF522C5818821408F46ECFF8CF842D1F
:100A6000867809F47BCF8BE241FE80E247FC8DE281
:100A7000B70190E071CFB70180E390E00E945B0581
:100A80009A946CCF8FEF9FEF99CFFC010590615046
:100A900070400110D8F7809590958E0F9F1F089594
:100AA000FC016150704001900110D8F7809590953D
:100AB0008E0F9F1F08950F931F93CF93DF93182FCF
:100AC000092FEB018B8181FD09C01FEF0FEF812FF3
:100AD000902FDF91CF911F910F91089582FF14C045
:100AE0002E813F818C819D81281739073CF4E88154
:100AF000F981CF0101969983888310838E819F812C
:100B000001969F838E83E3CFE885F985812F099530
:100B1000892BA1F3DACFFA01AA27283051F120312D
:100B200081F1E8946F936E7F6E5F7F4F8F4F9F4F81
:100B3000AF4FB1E03ED0B4E03CD0670F781F891FC3
:100B40009A1FA11D680F791F8A1F911DA11D6A0F91
:100B5000711D811D911DA11D20D009F468943F9144
:100B60002AE0269F11243019305D3193DEF6CF0143
:100B70000895462F4770405D4193B3E00FD0C9F709
:100B8000F6CF462F4F70405D4A3318F0495D31FD76
:100B90004052419302D0A9F7EACFB4E0A6959795C9
:100BA000879577956795BA95C9F70097610571059F
:100BB00008959B01AC010A2E0694579547953795E9
:100BC0002795BA95C9F7620F731F841F951FA01D43
:100BD00008952F923F924F925F926F927F928F92E1
:100BE0009F92AF92BF92CF92DF92EF92FF920F93BC
:100BF0001F93CF93DF93CDB7DEB7CA1BDB0B0FB6C6
:100C0000F894DEBF0FBECDBF09942A883988488882
:100C10005F846E847D848C849B84AA84B984C88418
:100C2000DF80EE80FD800C811B81AA81B981CE0F0F
:100C3000D11D0FB6F894DEBF0FBECDBFED010895F4
:040C4000F894FFCF56
:100C4400060126014A015D018801B801EE010B028B
:100C540045452564206C6162202564004861616417
:0E0C6400692052617A7A616B002534640000C9
:00000001FF
